:100000000C9462000C94D6010C94AF010C948A00FD
:100010000C948A000C948A000C948A000C948A0038
:100020000C948A000C948A000C948A000C94FD01B4
:100030000C948A000C948A000C948A000C948A0018
:100040000C9465010C948A000C948A000C948A002C
:100050000C948A000C948A000C948A000C948A00F8
:100060000C948A000C948A000000000023002600F3
:10007000290000000008000201000003040700003E
:1000800000000000000000000000250028002B00F8
:1000900000000000240027002A00040404040404D3
:1000A0000404020202020202030303030303010227
:1000B00004081020408001020408102001020408F6
:1000C0001020BB0211241FBECFEFD8E0DEBFCDBF92
:1000D00011E0A0E0B1E0ECE8F5E002C005900D927F
:1000E000A432B107D9F721E0A4E2B1E001C01D922A
:1000F000AE32B207E1F710E0C2E6D0E004C02197CB
:10010000FE010E94BE02C136D107C9F70E94450216
:100110000C94C4020C94000090E0FC01E255FF4FE7
:100120002491FC01E656FF4F8491882399F090E0DA
:10013000880F991FFC01E057FF4FA591B491FC0176
:10014000EA57FF4F859194918FB7F894EC91E22B89
:10015000EC938FBF0895833081F028F4813099F0BB
:100160008230A1F008958730A9F08830B9F084304A
:10017000D1F4809180008F7D03C0809180008F77C3
:1001800080938000089584B58F7702C084B58F7DF9
:1001900084BD08958091B0008F7703C08091B00036
:1001A0008F7D8093B00008951F93CF93DF93282F06
:1001B00030E0F901EE58FF4F8491F901E255FF4F0D
:1001C000D491F901E656FF4FC491CC23C1F0162F0C
:1001D00081110E94AB00EC2FF0E0EE0FFF1FEA57F9
:1001E000FF4FA591B4919FB7F894111104C08C9161
:1001F000D095D82302C0EC91DE2BDC939FBFDF911A
:10020000CF911F9108953FB7F89480912A01909162
:100210002B01A0912C01B0912D0126B5A89B05C002
:100220002F3F19F00196A11DB11D3FBFBA2FA92F75
:10023000982F8827820F911DA11DB11DBC01CD01F2
:1002400043E0660F771F881F991F4A95D1F70895DD
:100250000895E0912401F0E0EC5FFE4F8081811170
:1002600002C08AE001C08BE08093B4008091240139
:100270008F5F80932401803250F0F89410928000B8
:100280001092810010928500109284007894089555
:100290008EBD00000DB407FEFDCF8EB50895CF933F
:1002A000C82F60E089E00E94D4008C2F80680E94F3
:1002B000480180E00E944801C82F61E089E00E9467
:1002C000D4008C2F90E0CF9108951F920F920FB61B
:1002D0000F9211242F933F938F939F93AF93BF93CC
:1002E0008091260190912701A0912801B0912901C8
:1002F0003091250126E0230F2D3720F40296A11D11
:10030000B11D05C029E8230F0396A11DB11D20933F
:1003100025018093260190932701A0932801B09393
:10032000290180912A0190912B01A0912C01B0917B
:100330002D010196A11DB11D80932A0190932B01DF
:10034000A0932C01B0932D01BF91AF919F918F91FC
:100350003F912F910F900FBE0F901F9018951F92F5
:100360000F920FB60F9211242F933F934F935F93E9
:100370006F937F938F939F93AF93BF93EF93FF936D
:10038000E0910201F09103010995FF91EF91BF9176
:10039000AF919F918F917F916F915F914F913F911D
:1003A0002F910F900FBE0F901F9018951F920F92D4
:1003B0000FB60F9211242F933F934F935F936F9338
:1003C0007F938F939F93AF93BF93EF93FF93E091AE
:1003D0000001F09101010995FF91EF91BF91AF915B
:1003E0009F918F917F916F915F914F913F912F914D
:1003F0000F900FBE0F901F9018951F920F920FB67F
:100400000F9211242F933F934F935F936F937F939A
:100410008F939F93AF93BF93CF93DF93EF93FF930C
:10042000E2E8F0E08491EEEBF0E0D491EAEAF0E06B
:10043000C491CC2379F081110E94AB00EC2FF0E045
:10044000EE0FFF1FE859FF4FA591B491EC91ED23FA
:1004500061E009F460E081E0682780E10E94D40057
:100460000E942901FF91EF91DF91CF91BF91AF9150
:100470009F918F917F916F915F914F913F912F91BC
:100480000F900FBE0F901F901895789484B58260DE
:1004900084BD84B5816084BD85B5826085BD85B528
:1004A000816085BD80916E00816080936E001092A6
:1004B0008100809181008260809381008091810021
:1004C00081608093810080918000816080938000B2
:1004D0008091B10084608093B1008091B000816010
:1004E0008093B00080917A00846080937A0080913C
:1004F0007A00826080937A0080917A008E7F809368
:100500007A0080917A00806880937A001092C1000E
:100510008FB7F89490E89093610091E09093610018
:100520008FBF83E00E948C0080E10E948C0061E01C
:1005300080E10E94D400F894109280001092810013
:10054000109285001092840088EE93E090938900C9
:1005500080938800809181008860809381008091E1
:10056000810084608093810080916F00826080931D
:100570006F007894FFCF809161000895EE0FFF1F08
:0C0580000590F491E02D0994F894FFCF51
:10058C002801280100010001000100010001000107
:10059C000001000100010001000100010001000147
:0405AC000001000149
:00000001FF
