:100000000C945D000C9412020C94EB010C9485008E
:100010000C9485000C9485000C9485000C9485004C
:100020000C9485000C9485000C9485000C9485003C
:100030000C9485000C9485000C9485000C9485002C
:100040000C94A1010C9485000C9485000C948500FF
:100050000C9485000C9485000C9485000C9485000C
:100060000C9485000C9485000000000024002700FB
:100070002A0000000000250028002B0004040404CE
:100080000404040402020202020203030303030342
:10009000010204081020408001020408102001021F
:1000A00004081020000000080002010000030407FB
:1000B0000000000000000000F40311241FBECFEF79
:1000C000D8E0DEBFCDBF11E0A0E0B1E0EEEFF7E099
:1000D00002C005900D92A430B107D9F724E0A4E046
:1000E000B1E001C01D92AE30B207E1F710E0CDE5FE
:1000F000D0E004C02197FE010E94F703CC35D10760
:10010000C9F70E9439020C94FD030C94000090E0A2
:10011000FC01EC55FF4F2491FC01E057FF4F349157
:10012000FC01E458FF4FE491EE2309F43CC0222384
:1001300039F1233091F038F42130A9F0223001F563
:1001400084B58F7D12C0273091F02830A1F0243083
:10015000B9F4809180008F7D03C0809180008F77FB
:10016000809380000DC084B58F7784BD09C08091D5
:10017000B0008F7703C08091B0008F7D8093B00076
:10018000F0E0EE0FFF1FEE58FF4FA591B4919FB71F
:10019000F894611104C08C913095382302C0EC9121
:1001A0003E2B3C939FBF0895CF93DF9390E0FC01DB
:1001B000E057FF4F2491FC01E458FF4F84918823BE
:1001C00061F190E0880F991FFC01E859FF4FC5913C
:1001D000D491FC01EE58FF4FA591B491611109C073
:1001E0009FB7F8948881209582238883EC912E23F1
:1001F0000BC0623061F49FB7F8948881322F30953C
:1002000083238883EC912E2B2C939FBF06C08FB73E
:10021000F894E8812E2B28838FBFDF91CF9108952A
:100220003FB7F89480910A0490910B04A0910C04BC
:10023000B0910D0426B5A89B05C02F3F19F001967B
:10024000A11DB11D3FBFBA2FA92F982F8827820F5C
:10025000911DA11DB11DBC01CD0143E0660F771FAB
:10026000881F991F4A95D1F708958F929F92AF9258
:10027000BF92CF92DF92EF92FF926B017C010E94BE
:1002800010014B015C01C114D104E104F104F1F04F
:100290000E941001DC01CB0188199909AA09BB0948
:1002A000883E9340A105B10570F321E0C21AD10840
:1002B000E108F10888EE880E83E0981EA11CB11CAD
:1002C000C114D104E104F10419F7DDCFFF90EF90E0
:1002D000DF90CF90BF90AF909F908F90089508953A
:1002E0008EBD00000DB407FEFDCF8EB50895CF93EF
:1002F000DF93D82FC62F60E089E00E9487008D2F02
:100300000E9470018C2F0E94700161E089E0DF91F2
:10031000CF910C948700CF93C82F60E089E00E94B2
:1003200087008C2F80680E94700180E00E9470011D
:10033000C82F61E089E00E9487008C2F90E0CF9168
:1003400008951F920F920FB60F9211242F933F938F
:100350008F939F93AF93BF9380910604909107046E
:10036000A0910804B09109043091050426E0230F00
:100370002D3720F40296A11DB11D05C029E8230FD9
:100380000396A11DB11D209305048093060490934C
:100390000704A0930804B093090480910A04909183
:1003A0000B04A0910C04B0910D040196A11DB11D88
:1003B00080930A0490930B04A0930C04B0930D0453
:1003C000BF91AF919F918F913F912F910F900FBE51
:1003D0000F901F9018951F920F920FB60F92112435
:1003E0002F933F934F935F936F937F938F939F933D
:1003F000AF93BF93EF93FF93E0910201F09103015C
:100400000995FF91EF91BF91AF919F918F917F914E
:100410006F915F914F913F912F910F900FBE0F9071
:100420001F9018951F920F920FB60F9211242F93C1
:100430003F934F935F936F937F938F939F93AF936C
:10044000BF93EF93FF93E0910001F09101010995B3
:10045000FF91EF91BF91AF919F918F917F916F919C
:100460005F914F913F912F910F900FBE0F901F9072
:100470001895789484B5826084BD84B5816084BD0C
:1004800085B5826085BD85B5816085BD80916E0032
:10049000816080936E001092810080918100826063
:1004A00080938100809181008160809381008091A0
:1004B00080008160809380008091B100846080938F
:1004C000B1008091B00081608093B00080917A008B
:1004D000846080937A0080917A00826080937A00B1
:1004E00080917A008E7F80937A0080917A00806874
:1004F00080937A001092C1008FB7F89490E890939F
:10050000610091E0909361008FBF61E083E00E9401
:10051000D40061E080E10E94D40061E080E10E94AB
:10052000870061E089E00E94D40061E089E00E94D8
:10053000870061E08DE00E94D40061E08BE00E94C2
:10054000D40060E08CE00E94D4001FB7F894809142
:100550000401811127C0E6E8F0E08491EAE9F0E0C7
:100560009491E82FF0E0EE0FFF1FE859FF4FA5919F
:10057000B491EC91E92321F461E08AE00E948700C4
:1005800061E08AE00E94D4008CB580618CBD8CB59E
:1005900080648CBD61E08DE00E94D40061E08BE05E
:1005A0000E94D400809104018F5F809304011FBFDB
:1005B00080E58CBD1DBC8FE00E948B0199278334A0
:1005C0009105A9F064E670E080E090E00E943501BA
:1005D00061E080E10E94870064E670E080E090E0E6
:1005E0000E94350160E080E10E948700E4CF60E472
:1005F00081E20E94770164E670E080E090E00E9472
:10060000350162E580E20E9477016AE070E080E0F7
:1006100090E00E94350160E780E20E9477016AE085
:1006200070E080E090E00E94350160E88EE20E9478
:1006300077016AE070E080E090E00E94350162E0BE
:1006400082E20E9477016AE070E080E090E00E9420
:10065000350162E084E20E9477016AE070E080E0A8
:1006600090E00E94350160E28FE30E9477016AE02A
:1006700070E080E090E00E94350168E085E20E9431
:1006800077016AE070E080E090E00E94350168EC5C
:1006900085E20E94770153E0E52E54E0F52E60E0FC
:1006A000C62E60E0D62E8FE20E948B01182F80E3C9
:1006B0000E948B0115FB112710F9D12F20E0C22FCA
:1006C0008C2B9D2B9C01220F331F820F931F81388F
:1006D00091400CF478C060E089E00E94870088EACD
:1006E0000E94700105E011E0580180E00E94700155
:1006F000982E80E00E947001292D30E0382B35952E
:10070000279535952795F501219331935F01F5E004
:10071000AF16F4E0BF0649F761E089E00E94870068
:1007200080E090E0F801228133810E5F1F4F40810D
:100730005181241B350B253631050CF00196E0164E
:10074000F10681F78536910508F4ADCF61E080E1CF
:100750000E9487005B9A28E02A95F1F700C05B9819
:1007600000C05B9A88E08A95F1F700C05B9800C0F2
:100770005B9AE8E0EA95F1F700C05B9800C05B9AED
:10078000F8E0FA95F1F700C05B9800C05B9A28E0AA
:100790002A95F1F700C05B9800C05B9A88E08A95C3
:1007A000F1F700C05B9800C05B9AE8E0EA95F1F7CA
:1007B00000C05B9800C05B9AF8E0FA95F1F700C0C2
:1007C0005B9800C070CF6AE070E080E090E00E942B
:1007D000350160E080E10E948700C114D10409F472
:1007E00062CF0E9400005FCF809161000895EE0FFC
:0E07F000FF1F0590F491E02D0994F894FFCFBF
:0407FE006F016F0117
:00000001FF
